:020000040800F2
:100000000000011041AF0008511D0008531D0008F9
:10001000551D0008571D0008591D0008000000006C
:100020000000000000000000000000005B1D000850
:100030005D1D0008000000005F1D00087517000826
:1000400085AF000885AF000885AF000885AF0008C0
:1000500085AF000885AF000885AF000885AF0008B0
:1000600085AF000885AF000885AF000885AF0008A0
:1000700085AF000885AF000885AF000885AF000890
:1000800085AF000885AF000885AF000885AF000880
:1000900085AF000885AF000885AF000885AF000870
:1000A00085AF000885AF000885AF000885AF000860
:1000B00085AF000885AF000885AF000885AF000850
:1000C00085AF000885AF000885AF000885AF000840
:1000D00085AF000885AF000885AF000885AF000830
:1000E00085AF000885AF0008FD31000885AF000826
:1000F00085AF000885AF000885AF000885AF000810
:1001000085AF000885AF000885AF000885AF0008FF
:1001100085AF000885AF000885AF000885AF0008EF
:10012000D519000885AF000885AF000885AF000825
:1001300085AF000885AF000885AF000885AF0008CF
:1001400085AF000885AF000885AF000805320008BC
:1001500085AF000885AF000885AF000885AF0008AF
:1001600085AF000885AF000885AF000885AF00089F
:1001700085AF000885AF000885AF000885AF00088F
:1001800085AF000885AF00080348044B834202D0C6
:10019000034B03B118477047BC060020BC06002083
:1001A000000000000548064B1B1AD90F01EBA30104
:1001B000491002D0034B03B118477047BC0600201A
:1001C000BC0600200000000010B5064C237843B99F
:1001D000FFF7DAFF044B13B10448AFF300800123AB
:1001E000237010BDBC06002000000000ECC1000818
:1001F00008B5054B1BB105490548AFF30080BDE8C4
:100200000840FFF7CFBF00BF00000000C00600207D
:10021000ECC10008A3F5803A704700BF174B002BD4
:1002200008BF134B9D46FFF7F5FF00218B460F4695
:100230001348144A121A00F0CBF90E4B002B00D0D1
:1002400098470D4B002B00D0984700200021040058
:100250000D000D48002802D00C4800F0ABFA00F069
:1002600009FA2000290001F0E1FC00F011F800BFBC
:100270000000080000000000000000000000000076
:10028000BC06002010460020B5070008F511000844
:1002900008B50021044600F033FA034B1B6803B194
:1002A000984720460BF0E6F810080020024A034960
:1002B000034800F069B900BF040000204D0D00089C
:1002C000180000200C4B4168994210B5044601D03B
:1002D00000F03CFDA168094B994202D0204600F095
:1002E00035FDE168064B994204D02046BDE8104038
:1002F00000F02CBD10BD00BFD80600204007002034
:10030000A807002008B54B6EDA0702D48B899B053D
:1003100001D5002008BD886D00F0DEF9002008BD81
:1003200008B54B6EDA0702D48B899B0501D50020F6
:1003300008BD886D00F0D8F9002008BD2DE9F8430C
:10034000314C324B3248DFF8DC90DFF8DC80314F43
:100350001860002529460423082204F15C002E4E73
:10036000E360C4E90055C4E90455A5606566A5616C
:1003700000F02EF904F15800C4E90749C4E90987DF
:10038000E66200F0A1F92946244B6367082204F1D4
:10039000C400C4E91A55C4E91E552567C4F8CC50F9
:1003A000C4F8805000F014F904F1680304F1C000AF
:1003B000C4F88430C4E92298C4E9247600F084F9B2
:1003C000174BC4F8DC30294604F596700822C4E9BE
:1003D0003455C4E93855C4F8D850C4F83451C4F879
:1003E000E85000F0F5F804F1D003C4E93D87C4F803
:1003F000F09004F59470C4F8FC60C4F8EC30BDE8EB
:10040000F84300F061B900BFD806002010080020B2
:10041000AD02000885100008A910000809000100BD
:10042000120002001D10000845100008F8B506462D
:100430002A4800F051F92A4B1B68002B43D0294F62
:10044000D7E90134013B04D524E05A1C04F16804C7
:1004500020D0B4F90C50013B002DF6D1224BE360C3
:1004600004F15800656600F02FF91C4800F03CF9D3
:10047000C4E90155C4E904552560A561082229464F
:1004800004F15C0000F0A4F8C4E90C55C4E911556E
:100490002046F8BD3D680DB12F46D1E74FF4D67127
:1004A000304600F08DF9044680B1042305604360B6
:1004B0000C302946A06025464FF4D07200F088F831
:1004C0003C602F46BCE7FFF739FFB8E703483C60C4
:1004D00000F00AF90C233360DAE700BF300800208F
:1004E00010080020040000200100FFFF10B50446A2
:1004F0000A4800F0F1F8636B23B9094B094A1B68FD
:10050000626323B1BDE81040044800F0EDB8FFF786
:1005100015FFBDE81040014800F0E6B830080020A3
:1005200010080020C5020008014800F0D5B800BF3F
:1005300030080020014800F0D7B800BF3008002084
:1005400008B5054800F0C8F8BDE80840034A04496A
:10055000002000F019B800BF30080020040000207F
:100560000503000808B5054A0549002000F00CF80D
:10057000BDE80840034800F0B7B800BF0400002001
:1005800021030008300800202DE9F84380460F467B
:1005900016464FF00009D6E90154013D11D4A38954
:1005A000012B05F1FF3508D9B4F90E30013321468E
:1005B00003D04046B84749EA00096B1C04F16804BF
:1005C000EDD13668002EE6D14846BDE8F88300BF7D
:1005D000830730B547D0541E002A3ED0CAB2034626
:1005E00001E0013C39D303F8012B9D07F9D1032C1D
:1005F0002CD9CDB205EB05250F2C05EB054535D9DA
:10060000A4F1100222F00F0C03F1100EE6444FEAA1
:10061000121C1A46156055609560D56010327245FF
:10062000F8D10CF1010214F00C0F03EB021204F0EC
:100630000F0C13D0ACF1040323F003030433134471
:1006400042F8045B9A42FBD10CF003042CB1C9B20E
:100650001C4403F8011B9C42FBD130BD6446134689
:10066000002CF4D1F9E703461446C0E71A46A44625
:10067000E0E700BF70B50F4B0F4DAB42A3EB050693
:1006800007D0B610002455F8043B01349847A64221
:10069000F9D80BF0FFFC094D094B5E1BAB424FEA4A
:1006A000A60606D0002455F8043B01349847A6421C
:1006B000F9D870BDB0060020B0060020B0060020BA
:1006C000B8060020704700BF704700BF704700BFEA
:1006D000704700BF704700BF704700BF01207047E0
:1006E00001207047704700BF704700BF024B13B135
:1006F000024800F05FB8704700000000F5110008E4
:100700002DE9F04F294BDFF8A88083B083461868A5
:10071000CDF804B00F46FFF7DFFFD8F800609EB1B8
:100720004FF001094FF0000A7468651E0CD40134C3
:1007300006EB84047FB1D4F80031BB420BD0013DFD
:100740006B1CA4F10404F5D1184B186803B0BDE884
:10075000F04FFFF7C9BF73682268013BAB420CBF83
:100760007560C4F800A0002AE9D0D6F88811D6F840
:1007700004B009FA05F30B420BD190477368D8F81F
:1007800000205B4501D19642D9D0002ADCD0164624
:10079000CAE7D6F88C01D4F88010034202D1019840
:1007A0009047EBE708469047E8E700BF3801002094
:1007B00034080020002301461A46184600F02EBDDA
:1007C0002DE9F04F01F10B05162D85B0064624D812
:1007D000102900F2B18000F0ADFA102518234FF077
:1007E000020CBA4F3B44A3F108025C68944200F04B
:1007F00022816368E268A16823F00303CA6023448E
:10080000304691605A6842F001025A60083400F0A4
:1008100097FA204605B0BDE8F08F35F0070500F1E6
:100820008B80A94200F2888000F084FAB5F5FC7F45
:10083000C0F073816B0A00F08380042B00F22281E8
:10084000AB0903F1390C03F1380E4FEACC039F4F8B
:100850003B44A3F108005C68A04207D10DE0002AE8
:10086000E16880F2E280884207D00C46636823F09A
:1008700003035A1B0F2AF2DDF446DFF864823C6959
:10088000444500F0BF80636823F00309A9EB05032A
:100890000F2B00F34781002BC7E9048880F23181D8
:1008A000B9F5007FD7F804E080F0CC804FEAD90199
:1008B00001314FEA5919012303FA09F357F831209E
:1008C000A2604EEA030E07EBC103083BE360C7F8E2
:1008D00004E047F83140D4604FEAAC03012098406F
:1008E000704534D810EA0E0F07D12CF0030C4000ED
:1008F00010EA0E0F0CF1040CF9D007EBCC0A5246AB
:10090000E146D1680EE04B6823F00303A3EB050E2C
:10091000BEF10F0F0C46C96800F3C180BEF1000F95
:1009200080F2E2808A42EED109F1010919F0030F49
:1009300002F10802E5D121E10C233360002468E7CD
:100940004FF400734FF0400C4FF03F0E7FE7BC6850
:10095000636823F00309A94503D3A9EB05030F2B13
:1009600053DC5B4BDFF87CB11B68082003F11008F7
:1009700000F032FCDBF8003001900133A84404EBB6
:10098000090205D008F1FF388044434203EA080811
:1009900041463046029200F0F7FBB0F1FF3F029A69
:1009A000824600F0DC80824200F2D780494B0199F8
:1009B0001868404401F1FF311860844640F0FC8023
:1009C0001AEA010F40F0F880D7F808A0C84448F0B0
:1009D0000102CAF80420404B1968814238BF1860F0
:1009E0003E4B1968814238BF1860544622F0030814
:1009F000A845A8EB050301D30F2B06DC304600F019
:100A00009FF99BE7D7F804E066E7621943F001031A
:100A100045F0010565603046BA60536000F090F91A
:100A20000834204605B0BDE8F08FA2682344D160A9
:100A300030468A60E6E6DC68A3427FF4DAAE0CF169
:100A4000020C1AE7B9F5206F4FEA59227ED3142A17
:100A500000F2158102F15C03DB005B32F918FB58F0
:100A60000839994203D1F0E09B68994204D05A6852
:100A700022F003024A45F7D8D968C4E902318C60F4
:100A8000DC6029E7142B6DD9542B00F201812B0B6C
:100A900003F16F0C03F16E0E4FEACC03D7E630463C
:100AA000A668621945F001056560F1608E604EF040
:100AB0000101C7E90422C2F80880C2F80C80516025
:100AC00044F803E000F03CF90834A2E648010020B5
:100AD0006808002038080020640800206008002012
:100AE000500100203C010020234430465A6842F067
:100AF00001025A6054F8083FD9608B6000F020F979
:100B000087E6A1443046D9F8043043F00103C9F820
:100B10000430083400F014F97BE64FEAD50C05F1F7
:100B200008035EE6621943F0010145F001056560C6
:100B30003046C7E90422C2F80880C2F80C80516030
:100B400044F8093000F0FCF8083462E64FEA9912E4
:100B500002F13903DB00383280E7BC4224D0BC68A4
:100B6000626843E703F15C0C03F15B0E4FEACC03D0
:100B70006DE65AF80839534540F0D8801CF0030F51
:100B80000CF1FF3CF5D17B6823EA00037B60400059
:100B900098423FF6DCAE18B9D9E6400009F10409E5
:100BA0001842FAD0CC46A8E6614B0199186808EBC8
:100BB000000C0139C3F800C0DBF8000001301BBF96
:100BC000AAEB02026244CBF800A01A601AF00702F6
:100BD000CDE9022342D0C2F10802019B9244D044E5
:100BE000134408EA01001A1A02EA010B594630467A
:100BF00000F0CAFA421C039B7AD0A0EB0A0000EB7B
:100C00000B081868C7F808A048F001025844BC4215
:100C1000CAF8042018603FF4DEAEB9F10F0F42D9D4
:100C20006168A9F10C0222F0070201F001011143F1
:100C30006160A1184FF0050C0F2AC1F804C0C1F87B
:100C400008C04AD8DAF80420C5E69210012000FA5C
:100C500002F24EEA020EC7F804E00EE7019B0AEB2F
:100C600008020A409A1A02EA010B5946304600F07F
:100C70008BFA431C039BC0D1DDF808B0C1E7542AAE
:100C800015D84FEA193202F16F03DB006E32E5E648
:100C9000B3F5AA7F15D8EB0B03F1780C03F1770EAF
:100CA0004FEACC03D3E50123CAF80430A6E6B2F537
:100CB000AA7F25D84FEAD93202F17803DB007732D8
:100CC000CCE640F25452934225D8AB0C03F17D0C94
:100CD00003F17C0E4FEACC03B9E5304604F108017C
:100CE000019300F037FB019BD7F808A01868A9E72B
:100CF000029A083A9044A8EB0A084FF0000B80E7EC
:100D000040F254539A420DD84FEA994202F17D03C2
:100D1000DB007C32A2E64FF47E734FF07F0C4FF085
:100D20007E0E94E54FF47E737E2297E67B682EE775
:100D3000380800200148FFF7CFBC00BF240800207E
:100D40000148FFF7D1BC00BF2408002070B500297E
:100D50003FD005460C4610B1436B002B3CD0636E70
:100D6000B4F90C20DE0732D4900538D52146284648
:100D700000F054F8E36A064633B1E1692846984723
:100D80000028B8BF4FF0FF36A3891A0639D4216B6B
:100D900041B104F14003994202D0284600F0DAFA4A
:100DA00000232363616C21B1284600F0D3FA0023AD
:100DB0006364FFF7B9FB636E0022DB07A2811CD5D9
:100DC000A06DFFF785FCFFF7B5FB304670BD002A2C
:100DD000CCD10026304670BDFFF788FBBFE7A06D81
:100DE000FFF77AFCB4F90C30002BBFD1636ED90742
:100DF000EFD4A06DFFF778FCEBE7A06DFFF774FC74
:100E0000DEE72169284600F0A5FAC0E7024B01465B
:100E10001868FFF79BBF00BF10000020B1F90C203D
:100E20002DE9F0410C46110780464BD4616842F42D
:100E300000630029A38160DDA56A002D3FD0002159
:100E400012F48052D8F80060C8F80010E16961D14E
:100E500001234046A847431C02466BD0B4F90C302E
:100E6000A56AE1695F0705D56368D21A236B0BB1E8
:100E7000E36BD21A00234046A847451C4CD1D8F852
:100E800000101D293DD8324AB4F90C300A4112F045
:100E9000010238D162602269226023F40062A281DB
:100EA000DA0452D4216BC8F8006041B104F1400368
:100EB000994202D0404600F04DFA002323630020FF
:100EC000BDE8F0812669002EF9D0256826609107DB
:100ED0000CBF63690023AD1BA3600BE02B463246B9
:100EE000E169676A4046B847B0F1000CA5EB0C0514
:100EF000664406DD002DF1DCE1E7E16B00299BDCB7
:100F0000DDE7B4F90C3043F04003A3814FF0FF302C
:100F1000BDE8F081226DA5E7B4F90C3022692260AA
:100F200023F40062A281DB044FF000026260B9D5B5
:100F30002065B7E7D8F80030002B8FD01D2B01D0EB
:100F4000162BDED1C8F80060B9E70029AAD1EFE777
:100F5000FEFFBFDF38B50C46054608B1436B03B34F
:100F6000B4F90C0088B1636EDB0701D481050FD59D
:100F700028462146FFF752FF636EDA07054602D482
:100F8000A3899B0508D5284638BD0546284638BDA7
:100F9000A06DFFF7A1FBEBE7A06DFFF7A5FB2846CF
:100FA00038BDFFF7A3FADBE750B338B5174B1D6820
:100FB00004460DB16B6BBBB1B4F90C0088B1636E24
:100FC000DB0701D4810513D528462146FFF726FF0C
:100FD000636EDA07054602D4A3899B050CD5284623
:100FE00038BD0546284638BD2846FFF77FFAE3E7B7
:100FF000A06DFFF771FBE7E7A06DFFF775FBEEE76C
:10100000034A04490448FFF7BFBA00BF100000209C
:1010100004000020550F00081800002010B50C46F1
:10102000B1F90E1000F09AF8002803DB236D034499
:10103000236510BDA38923F48053A38110BD00BF95
:10104000002070472DE9F0410C46B1F90C101F4605
:10105000CB05054616460BD421F48051A1813B46B1
:10106000B4F90E1032462846BDE8F04100F09EB8B3
:10107000B4F90E100223002200F05AF8B4F90C1053
:10108000EAE700BF10B50C46B1F90E1000F050F8B9
:10109000B4F90C30421C0EBF23F4805343F4805348
:1010A0002065A38110BD00BFB1F90E1000F000B89B
:1010B00038B5074D0022044608462A600AF0ACF90C
:1010C000431C00D038BD2B68002BFBD0236038BDFB
:1010D0006C080020154B1B68834225D0416C70B50D
:1010E000054681B100268C593CB12146246828462A
:1010F00000F030F9002CF8D1696C0436802EF2D162
:10110000284600F027F9A96B11B1284600F022F912
:10111000E96C11B1284600F01DF96B6B1BB1284634
:10112000BDE87040184770BD704700BF1000002038
:1011300038B50C46084D8446114620461A46002311
:101140002B6064460AF070F9431C00D038BD2B6850
:10115000002BFBD0236038BD6C08002038B50C464E
:10116000084D8446114620461A4600232B606446EB
:101170000AF062F9431C00D038BD2B68002BFBD06D
:10118000236038BD6C08002038B5074D00220446A6
:1011900008462A600AF058F9431C00D038BD2B6875
:1011A000002BFBD0236038BD6C08002038B50C46FE
:1011B000084D8446114620461A4600232B6064469B
:1011C0000AF050F9431C00D038BD2B68002BFBD02F
:1011D000236038BD6C080020082802D14FF48050ED
:1011E000704708B500F0B4F9162303604FF0FF30E4
:1011F00008BD00BF38B5074D074C2C1BA41005D007
:10120000013C55F8043D9847002CF9D1BDE8384021
:101210000AF046BFBC060020B80600202DE9F843BE
:101220001B4D0646286898460F469146FFF754FA2C
:10123000184B1C681CB3286865681F2D22DC4EB94A
:101240006B1C0235636044F82570FFF74DFA0020EF
:10125000BDE8F88304EB85010123C1F88890D4F838
:101260008821AB401A43022EC4F88821C1F80881B6
:10127000E6D1D4F88C211A43C4F88C21E0E7064C5F
:101280001C60D8E7FFF730FA4FF0FF30E0E700BF0F
:101290003801002034080020700800202DE9F843B0
:1012A000064608208946FFF797FFDFF8A480054629
:1012B0003046FFF73FFDD8F808305F6827F0030796
:1012C000A7F11104A4EB09042C44B4FBF5F4013C90
:1012D00005FB04F4A54208DC00213046FFF754FF6B
:1012E000D8F808303B44984205D03046FFF728FD37
:1012F0000020BDE8F88361423046FFF745FF01302A
:101300000FD0114AD8F808303F1B47F001075F6043
:10131000136830461B1B1360FFF712FD0120BDE868
:10132000F88300213046FFF72FFFD8F80820831AF2
:101330000F2BDADD43F001035360044B02491B68B5
:10134000C01A0860D1E700BF380800203C01002027
:101350004801002000297CD02DE9F0410C46804650
:10136000FFF7E8FC54F8043C764FA4F1080523F09D
:1013700001016818BE684268864222F0030200F04C
:101380008380DE07426000EB020C33D454F8084C33
:10139000DCF804302D1B2144AC6807F1080C6445CF
:1013A00003F0010364D0D5F80CE0C4F80CE0CEF8EB
:1013B0000840002B00F0818041F001036B60016068
:1013C000B1F5007F22D27868CB08012249090133A8
:1013D0008A40024357F833107A6007EBC302083A99
:1013E000C5E9021247F83350CD604046BDE8F041F0
:1013F000FFF7A6BCDCF80430DB072BD541F0010376
:10140000B1F5007F44F8043C0160DCD3B1F5206FF6
:101410004FEA512353D28B0903F1390003F138020B
:10142000C300F818FB580838984203D163E09B6862
:10143000984204D05A6822F003028A42F7D8D8684A
:10144000C5E902308560DD604046BDE8F041FFF748
:1014500077BC7047114407F1080C836863453FD09F
:10146000C268DA60936041F001036B606950A7E7DE
:10147000002B61D10A44D0E90213CB60996042F09D
:1014800001036B60AA50B0E7DB070A4407D454F8A5
:10149000083CED1A1A44D5E90213CB60996042F07A
:1014A00001036B60284BBD601B6893429DD8274B9E
:1014B00040461968FFF7F2FE97E71144CDE7142B79
:1014C00008D9542B1FD80B0B03F16F0003F16E02E8
:1014D000C300A6E703F15C0003F15B02C300A0E7D1
:1014E00041F001033D617D61C5F808C0C5F80CC03D
:1014F0006B60695079E779689210012404FA02F26E
:101500000A437A609CE7B3F5AA7F06D8CB0B03F1B8
:10151000780003F17702C30083E740F2545293420C
:1015200006D88B0C03F17D0003F17C02C30078E741
:101530004FF47E737E2274E741F001036B6001601B
:1015400053E700BF48010020400100206808002048
:10155000014B1868704700BF10000020F0B501244F
:10156000B1FBF4F3934201D214B9F0BD5443F7E751
:10157000B1FBF4F50668EBB2092DCCBF373330333D
:10158000771CDBB204FB1511076094FBF2F4337097
:10159000EAE773B50D46019006462B7823B901980A
:1015A0000370801B02B070BD252B49D16B78692B6D
:1015B0000BD01BD8632B2BD005D8252B3BD0582B19
:1015C00036D00235E9E7642BFBD1144654F8041BEE
:1015D000002905DA019B5A1C01922D2249421A70FA
:1015E0000A2201A8FFF7BAFF2246EAE7752B1AD0B4
:1015F000782B1DD0732BE4D152F8043B0199013BA9
:10160000002013F8014F54B90028DAD00191D8E72F
:10161000019B52F8041B1970581C0190D1E701F886
:10162000014B0120EDE714460A2254F8041BD8E7C9
:1016300014461022F9E70199481C01900B70C0E78D
:101640000199481C013501900B70A6E770B503465F
:1016500000201A7802B970BD252A03F1010426D1B1
:101660005B78692B12D007D8632B0DD0642B0DD07B
:10167000582B1AD0013016E0732B0AD0722BF9D9EF
:10168000752B03D0782BF4E70431F3E70B300431EA
:1016900009E051F8042B13461D4613F8016B002E88
:1016A000FAD1801A2844631CD3E70830EFE70130F1
:1016B0001C46F8E70EB403B503AA52F8041B0192C6
:1016C000FFF767FF02B05DF804EB03B070470EB49C
:1016D000F0B582B000AF07F11C04054654F8046B66
:1016E0007C6021463046FFF7B1FFC31D23F007039E
:1016F000ADEB030D224631466846FFF74AFF6946C7
:101700000246B5F90E0009F0ADFE0837BD46BDE84A
:10171000F04003B070470FB4B0B582B000AF07F12E
:10172000180454F8045B7C6021462846FFF78EFFBE
:10173000073020F00700ADEB000D22462946684631
:10174000FFF727FF69460246012009F08BFE0837A4
:10175000BD46BDE8B04004B0704782B0044B019074
:10176000019A1A601A68002AFCD102B0704700BFC3
:10177000000A0020044B1A6812B11A68013A1A6074
:101780005A6801325A607047000A002013B5124CA3
:101790000121082007F08EFA104B4FF470422046CA
:1017A0004FF48051CDE9002306F0C5FB20464FF4ED
:1017B000005106F0C0FB20464FF4804106F0BBFB11
:1017C00020464FF4004106F0B6FB6946204606F07D
:1017D00041FB02B010BD00BF000C0240010200013D
:1017E00007B50121022007F065FA0F2300930323B8
:1017F0008DF804300448002369468DF8073006F060
:1018000029FB03B05DF804FB0008024030B51A4B19
:101810001A4C91B04FF08062CDE90123184B03932D
:1018200004220023CDE904324FF480614FF480524A
:10183000CDE9071209924FF480704FF40032CDE9E0
:101840000A02012501A92046CDE90D5306930C9308
:101850000F9305F009FD0B4B0093684603F02EFA39
:101860002A462046102105F0AFFD2946204605F006
:1018700036FD11B030BD00BF4C2201401064024063
:10188000080A00203800000170B58AB000254FF426
:1018900080336846CDE90053CDE9025503F097FA4D
:1018A000049508951B4D4FF08053012406930426A0
:1018B0004FF0106304A928460793ADF814408DF843
:1018C000246003F056FA2346224628460A2103F0F4
:1018D000C9FA2346284602220B2103F0C3FA234605
:1018E000284603220C2103F0BDFA2346324628463F
:1018F0000D2103F0B7FA2146284603F036FB2146B6
:10190000284603F029FB2146284603F079FA0AB05D
:1019100070BD00BF0022014010B5012188B00F4CFE
:10192000042007F0EBF9532240F6D823CDE9002339
:10193000694600232046ADF8083008F01DFC32232C
:10194000059303A9064B0393204608F077FD012178
:10195000204608F0B1FC08B010BD00BF00080040F0
:101960006000010010B50E480E4C012107F0A2F9ED
:1019700001214FF4806007F0CDF9FFF731FF00221D
:101980002046102105F020FD2046002105F0A7FC8F
:10199000FFF73CFFFFF778FFBDE81040FFF7BCBF43
:1019A000040040001064024008B50948012107F016
:1019B00081F901214FF4806007F0ACF9FFF710FFC7
:1019C000FFF724FFFFF760FFBDE80840FFF7A4BF63
:1019D0000400400008B50449044805F03FFD044BED
:1019E00001221A7608BD00BF20800010106402405A
:1019F000000A00202DE9F0414048414D9CB00121F2
:101A000007F058F901214FF4806007F083F93D4B4E
:101A10004FF08062CDE90D233B4B0F934FF4806173
:101A20004FF48053CDE913134FF480404FF480738B
:101A3000002401260427CDE915030DA94FF4003336
:101A40002846CDE91734CDE91047CDE91964129441
:101A50001B9405F009FC3146284605F040FC2B4D4F
:101A60002B488DF80B400DEB07010F234FF00308B7
:101A700001938DF8088006F0EDF94FF4803303A848
:101A8000CDE904340394069403F0A1F940F2011364
:101A900007A92846ADF82030CDE9094407940B94F6
:101AA0008DF8307003F065F92346324628460A2146
:101AB00003F0D8F92346284602220B2103F0D2F97D
:101AC0002346424628460C2103F0CCF923463A46E9
:101AD00028460D2103F0C6F93146284603F045FAA1
:101AE0003146284603F08CF9284603F000FA3146C7
:101AF000284603F031FA1CB0BDE8F0810400400034
:101B0000106402404C2201401C0A002000220140C7
:101B10000008024013B50B4C0B4B009304F12C0052
:101B20000A4B0B4A012102F0E3FD00200123C4F817
:101B30002006C4F82406C4F8280684F82C3602B01F
:101B400010BD00BF000A002070060020B80500206C
:101B500050060020044B93F82C3613B1034B187831
:101B600070470120704700BF000A00206C0600206B
:101B7000114BD3F82826E2B1D3F824267F2A84BF5C
:101B80000022C3F82426D3F824261A4492F82D26DE
:101B90000270D3F8242699180132C3F82426D3F80A
:101BA00028260020013A81F82D06C3F828260320B4
:101BB0007047027004207047000A00201FB58DF89E
:101BC00007009DF807308DF80F3001210DF10F004F
:101BD00002F066FC002005B05DF804FB10B5441E61
:101BE00014F8010F00B910BDFFF7E8FFF8E70E4B3E
:101BF000D3F828267F2A10B513D8D3F820167F29CA
:101C000084BF0021C3F82016D3F820165C180132D7
:101C1000013184F82D06C3F82016C3F828260020C9
:101C200010BD0220FCE700BF000A0020414B424AE1
:101C30001B68B3FBF2F32DE9F0434FF0E022013BC8
:101C400053613E4B3E4DDFF80491F02183F82310A1
:101C5000002407239461C5B01361FFF75BFF4FF4C5
:101C60007A70FFF77AFDFFF79FFE4FF47A70FFF767
:101C700074FDFFF78BFD6B686B684FF0010826461B
:101C8000FFF768FF06282FD104A8B8F1000F1FD076
:101C9000FFF76EFF0328074606D19DF81030412B51
:101CA00005D1002E08BF0126032C1DD12DE0432BAA
:101CB0000AD04B2BF8D1022EF6D12248FFF78EFF27
:101CC0004FF000083E46EFE7012E08BF0226EBE783
:101CD000FFF74EFF0328E7D19DF81030472B07D1BF
:101CE000002CE1D1A04601240120FFF736FDC7E713
:101CF0004F2B03D1012CD7D10224F5E7542BD3D19C
:101D0000022CD1D11048FFF769FF2B7E83B100234D
:101D10002B766A68AB68E96828696C690091CDE93F
:101D20000104494604A8FFF7C5FC04A8FFF756FFC5
:101D30000324D9E76005002040420F0000ED00E0D9
:101D4000000A0020D0C00008D4C00008D8C0000895
:101D50007047FEE7FEE7FEE7FEE770477047704713
:101D6000364AD2F8883043F47003C2F88830344BD6
:101D70001A68002142F001021A6099601A6822F084
:101D8000847222F480321A602E4A5A601A6882B035
:101D900022F480221A60D960009101911A6842F4FD
:101DA00080321A601A6802F400320192009A0132FD
:101DB0000092019A1AB9009AB2F5A06FF2D11B688D
:101DC00013F4003318BF01230193019B012B2ED183
:101DD0001B4B1D491A6C42F080521A640A6842F487
:101DE00040420A609A689A609A6842F400429A6097
:101DF0009A6842F4A0529A60144A5A601A6842F0F3
:101E000080721A601A689201FCD5114A40F205618D
:101E100011609A6822F003029A609A6842F0020206
:101E20009A60074A936803F00C03082BFAD1034B1E
:101E30004FF000629A6002B0704700BF00ED00E012
:101E40000038024010300024007000400854400761
:101E5000003C0240154B9A6802F00C02042A20D084
:101E6000082A20D159685A685B684902C3F388136D
:101E70004CBF0F490F4902F03F02B1FBF2F253434E
:101E80000A4A5268C2F3014201325200B3FBF2F334
:101E9000064A09499268C2F303128A5CD3400B6177
:101EA0007047034BF4E7034BF2E700BF00380240F2
:101EB00000127A000024F4005005002030B5144DC3
:101EC000DFED147A14492C4654F8043B04EB8302EA
:101ED00042F8040B043AA2420BD2104A1048814245
:101EE0000ED30133202B28BF002317EE900A2B605E
:101EF00030BDD2ED006AB1EC017A46EE877AE9E7AF
:101F000072ED016AB1EC017A46EE877AE7E700BF2D
:101F1000B010002000000000ECC0000834110020C8
:101F20006CC1000810B5044C80220021201DFEF772
:101F30004FFB0023236010BDB010002070B56D4C26
:101F40002368D4ED0D7A04EB8302013350600A223A
:101F500093FBF2F102FB1133D4E90B2188002044FA
:101F600090ED017A2360082AA36B77EE277A01F1BE
:101F700001056DDC9FED607AC4ED0D7A04EB830101
:101F800081ED0F7A0A21013395FBF1F001FB105529
:101F9000372193FBF1F001FB1033A363D4F8183120
:101FA000D4ED477A256304EB830191ED0F7A47EE78
:101FB000077A352A03F10101C4ED477A68DD363B23
:101FC00048BF0B4604EB830393ED0F7A47EE477A45
:101FD000C4ED477A3723B2F5B47F91FBF3F003FBEE
:101FE0001011C4ED487AC4F818110BD294ED497A57
:101FF000F4EEC77AF1EE10FA02F10102C8BFC4EDA7
:10200000497AE26294F828315BB1D4F82C3101337B
:10201000B32BC4F82C31C2BF002384F82831C4F894
:102020002C3194ED4C7AB4EEE77A94ED497AF1EEE6
:1020300010FAB4EEE77A48BFC4ED4C7AF1EE10FA2C
:1020400029D594F8283133BB012084F8280170BDCC
:10205000B1F10906A1F1050010D404EB860191ED60
:10206000017A77EEC77A04EB800090ED017ADFED1C
:10207000236AC4ED0D7A07EEE67A7FE704EB850666
:1020800096ED017A002877EEC77AB8BF481DEAE7D7
:10209000DFED197A9EE7D4F834315A1CB3F5B47FDA
:1020A000C4F8342101D20020D1E709F08BF807EE03
:1020B000900ADFED136A9FED137A94ED4C6AFAEE05
:1020C000E07A002307EEA67AC4F834310E4BDFED38
:1020D0000F6AC4F83031F7EE007A67EE266A77EEC1
:1020E000C77A94ED497A67EE877A46EE867AC4ED30
:1020F000497AD8E73411002000000000398EE33D12
:10210000EC51B83D0AD7233C809618CB3433333E8C
:102110000D4A10B5D2E90014A31003EB640303EBDE
:10212000E40303EB641303EBA41318449368C01A8D
:1021300001EB610303EBA10303EBE1031844C2E9E4
:102140000111106010BD00BF6C12002030B50E4CA4
:102150000E49226801EB82031864D860D1E91D534F
:10216000C3EB4503184401EB82035B6AA0EB430019
:1021700001EB8203013ADB6B48BF0C221844C1E932
:102180001D052260401130BD640500206C12002046
:102190000E490F4A4B6810B502EB8304C4F80001E6
:1021A000E067D2F88441204402EB8304013BD4F879
:1021B000FC4048BF2023001BC2F8840102EB8302CD
:1021C0004B60D2F8BC30A3EB601010BD640500205A
:1021D0006C1200200B4B30B5D3F89411D3F88C411E
:1021E000D3F88851C3F8884101EB4002121BD3F8A1
:1021F0009041C3F89401A2EB4502C3E96341D010BA
:1022000030BD00BF6C120020404370470E49D1F82A
:102210009821472A02F1010308BF002301EB830242
:1022200010B5D2F8A041C1F89831D1F89C31C2F86C
:10223000A0011B1B03445811B0F5805FC1F89C310D
:1022400088BF4FF4805010BD6C1200202DE9F04F74
:102250002DED028B91B01F4640F25623089291FB60
:10226000F3F203FB1212C04BDDED087ABF4CDDF830
:1022700074A0039003EBC203C3ED007A5960BC4B1A
:1022800003EB82030D462421C3F8C072C3F818ACD7
:1022900095FBF1F301FB135304EB83031C9AC3F882
:1022A0007824D4F8102504F5A163524593ED008AF3
:1022B000D4F80C3509DC9F42C4F814A5C4F818758D
:1022C0000ADA4FF0FF330993C7E09F42F9DBC4F805
:1022D00014A5C4F81875F4E79FEDA67AF8EE487ACD
:1022E00077EE877A07EE105AB8EEC77AB4EEE77A3F
:1022F000F1EE10FA40F3DB8118EE103A8133AB4275
:102300004FF00003A5F1240205F10106C4F81C35C5
:102310009C46C0F03B8192FBF1F001FB102004EBE6
:1023200080000132D0F87804604584BF84460123E0
:10233000B242F0D10BB1C4F81CC5D4F81C65D4F876
:102340002035B6EB530F03D8002384F82435B8E7C3
:10235000D4F8280509F00CFB874B002209F072FB2A
:1023600080465046894609F003FB00224FF07F5318
:1023700009F068FB02460B464046494609F0ACF9B5
:1023800009F010FED4F82CB5C4F82805A0EB0B001A
:1023900009F0EEFA794B002209F054FB80465846CA
:1023A000894609F0E5FA02460B464046494609F0DF
:1023B00093F909F0F7FDC4F8100509F0D9FA704B4C
:1023C000002209F03FFB09F0EDFDC4F83005D4F818
:1023D000340509F0CDFA684B002209F033FB804642
:1023E0003846894609F0C4FA00224FF07F5309F0BD
:1023F00029FB02460B464046494609F06DF909F0B3
:10240000D1FDD4F838B5C4F83405A0EB0B0009F0C1
:10241000AFFA5A4B002209F015FB80465846894610
:1024200009F0A6FA02460B464046494609F054F91F
:1024300009F0B8FDC4F80C0509F09AFA504B0022D7
:1024400009F000FB09F0AEFDC4F83C05474B0995C7
:102450000122C3F8206583F82425444E18EE103A73
:1024600096F82425A5EB0308002A00F0C48100207B
:1024700006F5A8620346516842F8041B0133072B96
:102480000844F8D1C6F85C85C6F80855404409F000
:102490006FFA4FF07F53002209F0D4FA09F082FD61
:1024A000D6F86435C6F86005984507463EDBD6F891
:1024B000683598453ADC0020324A0346516842F8B4
:1024C000041B0133072B0844F8D1C6F88885404423
:1024D00009F04EFA00224FF07F5309F0B3FA09F0E9
:1024E00061FDC6F88C0509F043FA19A3D3E900236E
:1024F00004460D4609F0A6FA09F054FD16A3D3E9E7
:102500000023C6F864052946204609F09BFA09F025
:1025100049FD13A3D3E90023C6F8680529462046E0
:1025200009F090FA09F03EFDC6F89005D6F88C1532
:10253000154B8F421A7A40F04A8101221A72039B8E
:10254000DDED087A099AC3ED007A5A6039E100BFDF
:10255000713D0AD7A370ED3F8FC2F5285C8FF23F23
:102560008FC2F5285C8FFA3FF828002064230020F2
:102570006C120020000090420000EC3F0000D03FB1
:102580000000E03FD02800206405002092FBF1F01D
:1025900001FB102004EB80000132D0F87804604584
:1025A00084BF84460123B242F0D10BB1C4F81CC5EC
:1025B000D4F8280509F0DCF9B24B002209F042FA00
:1025C00080465046894609F0D3F900224FF07F53E8
:1025D00009F038FA02460B464046494609F07CF8B5
:1025E00009F0E0FCD4F82C65C4F82805801B09F03C
:1025F000BFF9A54B002209F025FA804630468946EE
:1026000009F0B6F902460B464046494609F064F81F
:1026100009F0C8FCC4F8100509F0AAF99B4B002288
:1026200009F010FA09F0BEFCC4F83005D4F83405FE
:1026300009F09EF9934B002209F004FA80463846CF
:10264000894609F095F900224FF07F5309F0FAF915
:1026500002460B464046494609F03EF809F0A2FC06
:10266000D4F83865C4F83405801B09F081F9864B2D
:10267000002209F0E7F980463046894609F078F9EA
:1026800002460B464046494609F026F809F08AFC06
:10269000C4F80C0509F06CF97C4B002209F0D2F962
:1026A00009F080FCC4F83C05D4F81C65CEE6D4F8EB
:1026B0002C0509F05DF9734B002209F0C3F980463F
:1026C0005046894609F054F900224FF07F5309F033
:1026D000B9F902460B464046494608F0FDFF09F0AD
:1026E00061FC0546C4F82C05D4F82805401B09F008
:1026F0003FF9654B002209F0A5F980462846894636
:1027000009F036F902460B464046494608F0E4FF18
:1027100009F048FCC4F8100509F02AF95B4B0022C7
:1027200009F090F909F03EFCC4F83005D4F83805FA
:1027300009F01EF9534B002209F084F9804638460F
:10274000894609F015F900224FF07F5309F07AF914
:1027500002460B464046494608F0BEFF09F022FCFF
:102760000546C4F83805D4F83405401B09F000F9D3
:10277000454B002209F066F9064628460F4609F047
:10278000F7F802460B463046394608F0A5FF09F037
:1027900009FCC4F80C0509F0EBF83C4B002209F0E9
:1027A00051F909F0FFFB0023C4F83C05DDED087A80
:1027B00084F82435039B039AC3ED007A4FF0FF336E
:1027C0005360039811B0BDEC028BBDE8F08F00217F
:1027D0001972002A3FF4B3AED6F8103503EBD37369
:1027E0005B10C6F81035D6F80C3503EBD3735B10CD
:1027F000C6F80C35A3E6D6F89035434580F0DE8167
:10280000B8EE488A9FED227A07EE905A38EE078A92
:10281000F8EEE77AF4EEC87AF1EE10FA40F3CE81E2
:1028200040F25623984588BFC6F80855D6F80835B3
:10283000049307EE903AF8EE677AD6F830350A93AB
:1028400077EE877AD6F83C350B93D6F82035D6F854
:102850001CB5DFF84080FDEEE77A5B080E9317EEBB
:10286000909A6B1C0F93A94516D30A4B0AB1C3F873
:102870001CB593F82435002B00F0A0814FF000091F
:1028800059E100BF0000EC3F0000D03F0000E03FF6
:10289000000090426423002040F25621B9FBF1F37E
:1028A00001FB1393BC490A9801EB8303D3F8181C6E
:1028B000069181423DDDD3F8C0320B9907938B42DC
:1028C00037DDA5F124034FF0000B242193FBF1F237
:1028D00001FB123208EB82020133D2F878249345CF
:1028E00038BF93460F9A9342EFD10E9B5B4523D995
:1028F000049809F02DF8CDE9000109EB050009F075
:1029000037F89DA3D3E90023CDE90C01DDE90001EF
:1029100009F098F8DDE9002308F0DEFE02460B46D8
:10292000DDE90C0109F000FB30B1002388F8243503
:10293000012209F1010996E7049B40F22622A9EB46
:10294000030393420093F3D9069BC6F81435079B03
:10295000D6F82805C6F81CB5C6F8183509F008F8E9
:102960008E4B002209F06EF8044606980D4608F0DA
:10297000FFFF8B4B002209F065F802460B4620460C
:10298000294608F0A9FE09F00DFB0746C6F8280500
:10299000D6F8340508F0ECFF804B002209F052F81D
:1029A000044607980D4608F0E3FF7D4B002209F02E
:1029B00049F802460B462046294608F08DFE09F0EC
:1029C000F1FAD6F82C45C6F834058246381B08F0D3
:1029D000CFFF734B002209F035F8CDE90401204602
:1029E00008F0C6FF02460B46DDE9040108F074FE5C
:1029F00009F0D8FAC6F81005074608F0B9FF694B88
:102A0000002209F01FF809F0CDFAC6F820B5D6F873
:102A100038B5C6F83005AAEB0B0008F0A9FF604BEB
:102A2000002209F00FF8044658460D4608F0A0FFB2
:102A300002460B462046294608F04EFE09F0B2FA3F
:102A4000C6F80C05824608F093FF564B002208F0AA
:102A5000F9FF09F0A7FA544AC6F83C0500200346DE
:102A6000516842F8041B0133072B0844F8D1009B3E
:102A7000C8F85C35012388F82435009BC8F8089510
:102A8000184408F075FF00224FF07F5308F0DAFF7A
:102A900009F088FAD8F86435009AC8F860059A42B7
:102AA00006463FDBD8F868359A423BDC00203F4AB7
:102AB0000346516842F8041B0133072B0844F8D140
:102AC000009BC8F88835184408F052FF00224FF0E8
:102AD0007F5308F0B7FF09F065FAC8F88C0508F0D5
:102AE00047FF27A3D3E9002304460D4608F0AAFFB9
:102AF00009F058FA24A3D3E90023C8F8640529464D
:102B0000204608F09FFF09F04DFA21A3D3E90023E6
:102B1000C8F868052946204608F094FF09F042FAF3
:102B2000C8F89005224A234BD2F88C05197A8642C0
:102B300010D101221A7240F25623B9FBF3F203FBC3
:102B400012931D4A02EBC30393E80300039B83E83F
:102B5000030036E6002018720029ECD007EBD77787
:102B60000AEBDA7A7F104FEA6A03C2F81075C2F8EE
:102B70000C35E0E7AFF300800AD7A3703D0AD73FDA
:102B8000713D0AD7A370ED3F8FC2F5285C8FF23FED
:102B90008FC2F5285C8FFA3F6C1200200000E83FDE
:102BA0000000D03F0000E03FA4280020D0280020F3
:102BB0006423002064050020F8280020464BD3F849
:102BC0001025524504DDD3F80C35BB423FF7B7ACB6
:102BD000D4F82C05C4F814A508F0CAFE3F4B002217
:102BE00008F030FF80465046894608F0C1FE0022BA
:102BF0004FF07F5308F026FF02460B4640464946F9
:102C000008F06AFD09F0CEF90546C4F82C05D4F8A1
:102C10002805401B08F0ACFE314B002208F012FFE3
:102C200080462846894608F0A3FE02460B464046E9
:102C3000494608F051FD09F0B5F9C4F8100508F04F
:102C400097FE284B002208F0FDFE09F0ABF9C4F80E
:102C50001875C4F83005D4F8380508F089FE1F4B04
:102C6000002208F0EFFE80463846894608F080FED4
:102C700000224FF07F5308F0E5FE02460B46404627
:102C8000494608F029FD09F08DF90546C4F83805D4
:102C9000D4F83405401B08F06BFE114B002208F0FD
:102CA000D1FE064628460F4608F062FE02460B4655
:102CB0003046394608F010FD09F074F9C4F80C05E7
:102CC00008F056FE074B002208F0BCFE09F06AF936
:102CD000C4F83C0533E400BF642300200000EC3F4F
:102CE0000000D03F0000E03F2DE9F7438F4CDDEDC1
:102CF0000A7A2568EE46042D8EE80600074605F19F
:102D000001060DD89EE8030004EBC505043585E8EF
:102D10000500266000233B604FF0FF337B60C7E077
:102D20004FF0050CB5FBFCF808EB88089EE80300A3
:102D3000A5EB080804EBC80808F1040989E80500B8
:102D4000EA1EB2FBFCF101EB8101521A04EBC20254
:102D500092ED016A2660AA1EB2FBFCF101EB810133
:102D6000521A04EBC20292ED017AB6FBFCF2F8EEC5
:102D7000006A16EE267A02EB8202B21AD8ED016AD8
:102D800004EBC202013DB5FBFCFC0CEB8C0C37EEF6
:102D9000267AA5EB0C05D2ED016AEA0004EBC50525
:102DA00076EEA66AA968216337EE267A94F8341085
:102DB00084ED0B7A31BB94F835204AB90022A26326
:102DC0004FF0FF32E263012284ED107A84F835205F
:102DD000626CD4ED106A01329A4262640AD99FEDA6
:102DE000546A67EE867A012367EEA67A84F8343057
:102DF000C4ED127AB4EEE67AF1EE10FA8ADD84EDD3
:102E0000107A87E794F84C30002B55D0236DF31AD5
:102E10007E2B51D994F8543043B9D5E9010104F11E
:102E2000380383E80300012384F85430A318D3ED5A
:102E3000016A94ED0E7AF4EEC76AF1EE10FA03F12E
:102E4000040205DD92E803003A4B83E8030061E7E2
:102E50007FF560AFD4ED166A94ED106ADDED0B5A84
:102E6000266537EE667A0023BDEEC77A84F84C30CB
:102E700084F8543017EE103A002BB8BF5B4207EECF
:102E8000103AB8EEC77A2B4B37EE467A93E8030038
:102E9000C7EE256A87E8030036EE867ADFED246AFE
:102EA00084ED107A67EEA67A67EE877AC4ED127A1F
:102EB000384603B0BDE8F083D4ED126A236EB4EE59
:102EC000E67AF1EE10FA23DD0133012B236624DCD0
:102ED000236DF31AFC2B7FF61DAFF5EEC06AF1EE01
:102EE00010FA7FF717AFB3F5876F88BFFDEEE77A6B
:102EF00076EEC76A81BF17EE902AD34007EE903A6C
:102F0000F8EE677A88BF76EEE76AC4ED126A01E7E9
:102F1000002BDDD000232366DAE7012384F84C3050
:102F2000002323669EE80300034B8EE7A83B0020A6
:102F30000000803DE03B0020003C0020124BDFED14
:102F4000136A1A6893ED016AB2F5B47F07EE100AAE
:102F50000ED2C7EE267A01321A6077EE867AC3ED7A
:102F6000017AD3ED027A67EEA67A17EE900A7047DF
:102F70009FED077AC6EE077A00221A6000225A6097
:102F8000C3ED027AEDE700BF0C3C002000007A445C
:102F90000000B44310B5184CE368D4ED047AB3F5DF
:102FA000B47F2DED028B07EE100A9FED148A10D22C
:102FB000C7EE086A0133E36046EEA67AC4ED047AF0
:102FC000D4ED057A67EE887ABDEC028B17EE900A95
:102FD00010BD9FED0B7AC7EE877A17EE900A08F0C6
:102FE000D9FC07F0D1FF09F005F80023E3600023C6
:102FF00060612361E4E700BF0C3C002000007A44DC
:103000000000B44310B51C4CA369D4ED077AB3F5A6
:10301000B47F2DED028B06EE900A94ED028A0FD25A
:103020009FED166A86EE867A0133A36137EE487A01
:1030300047EE077AC4ED077ABDEC028B206A10BD1B
:103040009FED0F7AC7EE877A17EE900A08F0A2FC80
:1030500007F09AFF08F0CEFF07EE100AC7EE087AD5
:103060000023A3610023E3619FED067A67EE877A70
:10307000C4ED087AE0E700BF0C3C002000007A4471
:103080000080B3430000C842054B93F8242032B9B6
:1030900001229862D86283F8301083F824207047A8
:1030A0000C3C002007EE103A264B07EE901AD3EDA9
:1030B0000A6AF4EEE76AD3ED0B6A10B5F1EE10FA86
:1030C0000446F4EEE76A93F8300044BF5A63C3ED58
:1030D0000A7AF1EE10FA0299C4BF9A63C3ED0B7A33
:1030E000D8B1D3ED0A6A36EEC77AB4EEE77AF1EEDC
:1030F00010FA23DD002283F830205A6BC3ED0B6AEF
:103100009A6301200870C3ED0F6A1A640E4B93E8AE
:10311000030084E80300204610BDD3ED0B6A36EEB1
:10312000877AB4EEE77AF1EE10FA07D5012283F838
:1031300030209A6BC3ED0A6A5A63E3E74FF0FF321F
:10314000E3E700BF0C3C0020483C002013B5204CB6
:103150000121084605F0AEFD40F202334FF4C052A3
:1031600069462046CDE9002304F074FE20460A2279
:103170000B2104F0EDFE0A2220460C2104F0E8FEAB
:10318000144B4FF40071CDE900132046694604F05A
:1031900061FE4FF48063009303238DF80530694688
:1031A00040F201132046ADF8063004F053FE0A2227
:1031B0001146204604F0CCFE01214FF4804005F07A
:1031C000A9FD0121802005F081FD02B010BD00BFE6
:1031D000000002400003010007B54FF4C06001F099
:1031E00063FD044B019301A801F068FD03B05DF895
:1031F00004FB00BF43010301704770474FF4802078
:1032000004F09EB9014800F0C3BD00BF2C0A0020A5
:1032100037B50023114C019305460320FFF7ECFF5F
:10322000EB68013C1A69019216D0019A002AF4DA7F
:10323000019A42F001020192019A1A61074A196942
:103240000191013A02D00199C907F8D4032003B0D3
:10325000BDE83040FFF7D0BF03B030BD410D0300E3
:1032600010B51446C2783AB900EB84000333D0F8A5
:10327000D0009B10934201D1002010BD51F8224094
:1032800004600132F6E710B50332D0F8D000921096
:103290000023934202D101EB830010BD046841F882
:1032A00023400133F5E7012370B5012943804FF036
:1032B0004003838032D14FF4816303804FF4A073C5
:1032C000C38002230372C1724FF0A04303F5006272
:1032D00045780261C36003F5106200F11404002117
:1032E0008D4227D803F58062426103F58862C0F8F9
:1032F000CC20024603F5A06412F88C5B00218D42BD
:1033000020D803F5805100F1CC04002295421ED84C
:1033100003F56063C0F80C31002070BD41B940F284
:103320000C6303804FF4A063C380C1720B4BCDE7E5
:103330000023CBE744F8042F02F50076E663013161
:103340002032CDE742F8044F01312034D7E744F86A
:10335000041F013201F58051D8E700BF000004408E
:1033600038B5027AC368012A04464FF0000522D11D
:103370009D6B417A6FF3104509B9C5F3005262F3B2
:1033800014559D63DA6822F4940222F04002DA6058
:103390002046FFF73DFFE378012B23D1E3682A2283
:1033A0009A60E1688B6823F03E0242F02A0262F3E1
:1033B00007038B6016E0DA6842F04002DA60FFF73C
:1033C00027FF637A003B18BF01231B0143F02D0345
:1033D00063F31745E36814209D63FFF70EFFE3785E
:1033E000012BDED0002038BDC268936843F0010392
:1033F000936000207047C268936823F001039360D4
:103400000020704707B500230193019B43F0200380
:103410000193019B61F38A130193C268019B1361BD
:10342000074B11690191013B02D001998906F8D43B
:103430000320FFF7E1FE002003B05DF804FB00BFAE
:10344000410D030007B500230193019B43F01003D6
:103450000193C268019B1361074B11690191013B04
:1034600002D00199C906F8D40320FFF7C5FE002059
:1034700003B05DF804FB00BF410D0300C06808B550
:10348000C368C3F3076222F06002012962F31F637D
:1034900007D143F00053C3603220FFF7AEFE002097
:1034A00008BD0029F7D143F08043F4E7C3685869A9
:1034B00000F001007047C3685869C04300F0010084
:1034C0007047C368586900F001007047C3685869C5
:1034D0009B6918407047C368586870470269136851
:1034E00061F3010313607047024610B5D3686FF0B3
:1034F000804100204FF0FF34986159615C60596150
:1035000006499961D178064AB1FA81F1490942EA3E
:10351000011299690A439A6110BD00BF000800803A
:1035200008383C00F8B5D0F80C3102690021196068
:10353000136861F3CC231360C37A012B044612D1C4
:103540000321FFF7CBFFC36880225A6202F5001205
:103550009A622B4AC3F804212A4AC3F808214FF47F
:10356000A072C3F80C2110212046FFF74BFF204624
:10357000FFF768FF226900234FF0FF3113615361A9
:103580009161D361607804F114051E46FF279842CB
:1035900014D8002304F150051E46FF2798421ED878
:1035A000136943F480731361E378012B04BF164B56
:1035B00013632046FFF798FF0020F8BD55F8041F5D
:1035C000D1F800C0BCF1000FACBF4FF0000C4FF0C1
:1035D000904CC1F800C001330E618F60D7E755F8F9
:1035E000041FD1F800C0BCF1000FACBF4FF0000CBD
:1035F0004FF0904CC1F800C001330E618F60CDE7F1
:10360000A000800020012000030181000369986868
:10361000C0F3410002281DBF20F00200C0F10300EA
:10362000C0B201207047036981699A680868C2F3D3
:103630004102022A0CBF0322002262F30A00086042
:103640005A6842F480725A60002070470B7870B557
:1036500001224D789A4000EB8303012D0CBF9D6938
:103660005D6D2E684FF0000492B20CBF62F30F0440
:1036700062F31F44330414D48B68CA78C3F30A037B
:1036800043F0805302F0030243F4004343EA8243D1
:10369000CA8802F00F0243EA8253054A32401343BC
:1036A0002B600369DA691443DC61002070BD00BF40
:1036B000007833EC30B50B78497801229A4000EB62
:1036C0008303012904460CBF9B695B6D4FF0000525
:1036D00092B20CBF62F30F0562F31F45002022690E
:1036E0001860D36923EA0503D36130BD2DE9F041A9
:1036F00091F801E00A784B6991F803C0BEF1010F1F
:1037000051D100EB8204A5692C682E6906F0604651
:103710005BB946F400262E61C678012E01D10E69F0
:103720006E61BCF1010F19D128E08F6807EB030827
:1037300008F1FF38B8FBF7F8384F07EAC847C3F37A
:10374000120847EA08073743BCF1010F3E460DD087
:103750002F61C378012B58D10B696B61C4F30763E8
:1037600063F07B0363F31F642C6019E06CF35E76F7
:103770002E61C678012E01D10E696E610669C96895
:10378000B66816F4807FC4F307660CBF66F05B066C
:1037900066F06B0666F31F642C609BB2FFF760FD5A
:1037A0000020BDE8F08100EB82028D68526DC5F308
:1037B000120714681669CBB967F31206012363F385
:1037C000DC461661C378012B04BF0B695361BCF161
:1037D000010F03D14B79ABB144F00054C4F307633C
:1037E00063F07B0363F31F641460D9E72B44013B50
:1037F000B3FBF5F3C3F3090363F3DC467B4363F3E5
:103800001206DEE744F08054E8E70369596B0EFACC
:1038100002FE4EEA01015963A0E700BF0000F81F55
:1038200037B54A784B69012A3BD185692A682C69EA
:1038300000943BB18C689C423ABF4C6104F07F031A
:1038400003F07F03009C24F4C01424F07F0443F4AD
:1038500000231C432C610094C478012C0DD10B78FB
:10386000096900EB83039B695961C2F3076363F045
:103870007B0363F31F622A6010E0C2F3076363F007
:103880007B0363F31F622A6044B94B6933B1026959
:103890000978506B01238B4003435363002003B02E
:1038A00030BD0A7800EB8202556D2A682C690094BD
:1038B0008C6803B14C61009B04F07F0423F4C013B7
:1038C00023F07F0344F400241C432C61C378012BB4
:1038D00004BF0B696B61C8E74B780A78012B00EBDA
:1038E000820011D180690B490268002AA8BFC2F387
:1038F00080739B0301EA124143F020030B4363F3FF
:103900001F42026000207047426D136843F40013A9
:103910001360F7E7DFBFFFFF0B784A78C97800EB49
:103920008300012A0CBF8269426D136802390129A4
:103930006FF355538CBFC3F30071012161F31C7306
:1039400013600020704703699869DB691840000C18
:10395000704700EB81014B6D9A680369586910400C
:10396000704703699869DB69184080B27047436DFE
:10397000064A1A61C278012A06D100F2CC50586179
:103980001A684FF080221A60704700BF180008C004
:10399000D0F8183110B50446D3B102699368DB073B
:1039A00016D5837A43B1D0F80C3123F0030161F3CB
:1039B0000703D0F80C110B60536843F00103536008
:1039C0000520FFF71AFC2269536823F001035360B6
:1039D00010BD837A63B103699B68DB0708D5D0F813
:1039E0000C3123F0030262F30703D0F80C211360BB
:1039F000704738B50123044680F81231407804F14D
:103A000014020023FF21984210D8236900221A6172
:103A10005A61DA614FF0FF329A612046FFF712FDDA
:103A200020461021BDE83840FFF7ECBC52F8045F97
:103A3000A960D56B0133A960E5E74A780B78012AC4
:103A400000EB83000BD183691B689902C3F3074223
:103A500013D412F0020F0CBF302020207047436DAA
:103A60001B68C3F307429B0209D412F0020F0CBF7C
:103A70004FF440504FF400507047102070474FF4FF
:103A80008050704770B44C780B78012C06460D4678
:103A900000EB830316D19C69102A236802D170BC05
:103AA000FFF71ABF202A02D143F0006311E0302A49
:103AB0001DD19A0216D500236B712946304670BC81
:103AC000FFF72ABF5C6DB2F5805F236804D143F431
:103AD0000013236070BC7047B2F5005FE4D0B2F50C
:103AE000405FE5E743F0044343F40043F1E7002A75
:103AF000EFD162F3CF33ECE770B504460125FFF751
:103B0000D2FB0023607884F8125184F8143104F554
:103B10008E7219464026984202F128021AD80022D5
:103B200004F55D7311464025904203F128031FD828
:103B30002046FFF760FC2046FFF712FC00212046DC
:103B4000FFF79CFC2046FFF7EDFC2046BDE87040E7
:103B5000FFF74ABC02F8283C22F8223C42E90861FF
:103B600002F8275C02F8251C42F8141C0133D2E746
:103B700003F8282C23F8222C43E9085103F8271CCA
:103B800003F8251C43F8141C0132CDE711F0800F17
:103B900070B50D464FF028041AD001F07F0504FBE4
:103BA000050104FB0504012601F58E7184F81C5102
:103BB00084F81D61C4F8242184F81F31A4F822512F
:103BC000022B04BF00230B71FFF740FD002070BDE6
:103BD00004FB010104FB050401F55D7184F87453D5
:103BE000002584F87553C4F87C2384F87733E7E71D
:103BF0004BB2002B10B54FF0280201F07F04B5BF87
:103C000002FB040202FB010102F58E7101F55D71F8
:103C1000DB0F0C704B70FFF74DFD002010BD38B569
:103C200001F07F05282404FB050104FB050401F5D0
:103C30005D71C4F888330023C4F88023C4F88C3342
:103C400084F8753384F87453C378012B08BFC4F823
:103C500084231DB9FFF7E4FD002038BDFFF746FDC2
:103C6000FAE770B501F07F05282606FB050406FB80
:103C70000501C4E94A2201260022C4E94C3201F5BB
:103C80008E7184F81D6184F81C511DB9FFF7C8FDC1
:103C9000002070BDFFF72AFDFAE74BB2002B10B5EC
:103CA0004FF0280201F07F04B5BF02FB040202FBC3
:103CB000010102F58E7101F55D710122DB0F8A7041
:103CC0000C704B70FFF708FE002010BD38B54BB2EA
:103CD00001F07F05002B4FF02802ADBF02FB010170
:103CE00002FB050202F58E7101F55D710024DB0F08
:103CF0008C700D704B70FFF70FFE204638BD08B575
:103D00000B0605D501F07F01FFF77CFB002008BD05
:103D1000FFF798FBFAE70269002361F30A131168C1
:103D20000B4313607047026953686FF3410353609C
:103D30000320FFF762BA0269536843F0020353603D
:103D40000320FFF75ABA11F0800F4FF028031BBF72
:103D500001F07F0103FB010103FB010101F58E71FD
:103D600008BF01F55D71FFF768BE11F0800F4FF0DD
:103D700028031BBF01F07F0103FB010103FB0101CD
:103D800001F58E7108BF01F55D71FFF77BBE000084
:103D90002DE9F04F85B00446FFF78DFB18B90020E0
:103DA00005B0BDE8F08F2046FFF790FB06460028DF
:103DB000F5D0C0F3074313F0080000930ED020465F
:103DC000FFF7C1FDDFF894A2074604F1540BA046AB
:103DD0004FF00009002F40F0F8800120009B5B07A6
:103DE0000DD52046FFF7BDFD04F118078146254695
:103DF0004FF0000AB9F1000F40F034810120B707FD
:103E000042BFE36802225A61002EF5B219DAA37AA2
:103E100043B1D4F80C3123F0030262F30703D4F862
:103E20000C2113602269536823F0010353608B4B0C
:103E30001B6820469B699847E3684FF000425A612F
:103E400001203105C6F307272DD500238DF80F304B
:103E500094F812318DF80F30804B1B6820465B6957
:103E600098472369E2689B684FF400615161A27A28
:103E7000C2B1DA0716D594F81531012B12D19DF88D
:103E80000F30032B0ED1D4F80C311A6842F0010226
:103E90001A601A6842F003021A60714A136943F00B
:103EA0000603136101202B0708D56C4B1B682046C5
:103EB000DB689847E36808225A610120EE0615D5B1
:103EC000E3689A6922F010029A611D6AC5F34343C0
:103ED000022B05F00F0800F05D81062B00F07581C4
:103EE000E268936943F0100393610120FD0632D527
:103EF00022695368002523F00103536029462046B8
:103F0000FFF780FA94F801C02E4604F114022B4604
:103F1000FF206345C0F06A8123694FF0FF329A6148
:103F20004FF00112DA610B2262F3070562F3070614
:103F30005D611E611A686FF30A121A602046FFF76E
:103F400016FDE3684FF480525A61444B1B682046CB
:103F50001B6998470120B9061BD52046FFF763FB74
:103F6000E3682046DD68FFF751FB03280BBF0923F8
:103F700005234FF40072402263F38D25E368A2808D
:103F80000CBF002101214FF40052A1700120DD601F
:103F90005A61009BDA0609D5304B1B682046DB6965
:103FA0009847E3684FF480125A610120009B9B06FA
:103FB0007FF5F6AE294B1B6820461B6A9847E368DD
:103FC0004FF400125A610120EAE6F8073DD55FFA86
:103FD00089F120460191FFF7BCFC10F0010F019917
:103FE000054620D0DBF8002001259560E078A84246
:103FF00007D11069D8F87C23C0F31200121AC8F850
:104000008C23DAF80020204612689047E278012AD3
:1040100009D1B9F1000F06D194F81121052A02D176
:104020002046FFF7A4FCA90741BFDBF800200225CA
:104030002B4693602A0708D5DAF8002020469268BC
:104040009047DBF800200823936009F101097F08FD
:104050000BF1040B08F12808BCE600BF00060020A5
:1040600000ED00E019F0010F6FD023695FFA8AFBC1
:104070001969586B04EB8B0220FA0BF892694FEA2E
:10408000C81892685FFA88F848EA010808EA020846
:1040900018F0010F1ED05A6B012101FA0AF122EA31
:1040A00001025A633B684FF00108C3F80880534B84
:1040B0001B6859465B6820469847E378434509D119
:1040C000BAF1000F06D194F81131042B02D1204629
:1040D000FFF74DFC18F0080F1EBF3B684FF00808B3
:1040E000C3F8088018F0100F1EBF3B684FF010088F
:1040F000C3F8088018F0400F1EBF3B684FF040081F
:10410000C3F8088018F0020F1EBF3B684FF002088A
:10411000C3F8088018F0800F17D0D5E94C329B1AED
:10412000D5F82421934228BF134603339B080193FB
:104130003B68019A9B699BB2934203D9D5E94C3203
:10414000934209D83B6880229A600AF1010A4FEA3B
:104150005909043728354DE6A3EB0208D5F8243178
:10416000D5F82811984528BF984608F103039B0805
:1041700001935A461FFA88F32046FFF771F8D5F8E5
:1041800028314344C5F82831D5F834314344C5F8C3
:104190003431CDE747F6F0732B423FF4A1AE282629
:1041A00006FB0846C5F30A15D6F880132A462046B2
:1041B000FFF769F8D6F880332B44C6F88033D6F879
:1041C0008C332B44C6F88C338AE6082204F2CC5197
:1041D0002046FFF758F8282303FB0848C5F30A15C3
:1041E000D8F88C332B44C8F88C3379E652F8041F86
:1041F0008860D16B013388608BE600BF0006002029
:1042000010B5074C2068FF2807D00649064B51F827
:10421000042B9B689847FF232360002010BD00BF3C
:1042200070050020503C0020EC050020432301488D
:104230000B807047740500201A4938B5CB68052BF0
:1042400003F1010202D0CA60002038BD0A7C0023BD
:10425000012ACB60F8D04A69B2F5006F08BF4B6104
:10426000D1E90524A24202D100230B74ECE794BFEC
:10427000A41AC2F50064402C97BF1519403CA3B2A4
:10428000002488BF02F14005CC614FF001044D616C
:104290000C74054988BF402311FA82F28121FFF78F
:1042A000E0FCD1E7503C0020703C002038B52823CA
:1042B000084D03FB0101084BB1F88C131B69044640
:1042C0002846984740232A4601212046FFF7A7FCAD
:1042D000002038BD70440020EC05002070B50E7839
:1042E00016F0600305460C4624D0202B1ED1CA8848
:1042F0004B78AAB131060AD51E4918468E681E4968
:10430000B047E2881C49284600F076FA06E01B49CF
:104310000B601B4941F8042B00F083FA002008E0F1
:10432000144918468C681146A047F7E700F061FC75
:10433000022070BD4B780A2B10D00B2B11D0062B0E
:10434000ECD14B881B0A212B05D1CA880D493A2A8A
:1043500028BF3A22D7E70C493A22D4E70B49012279
:10436000D2E78B781BB9064AC2F86038D6E700F06E
:1043700040FCD3E7EC050020543C002070050020F1
:10438000503C0020860500207D050020B044002020
:1043900010B581210446FFF72BFC01212046FFF7D1
:1043A00027FC82212046FFF723FC024B5B689847DD
:1043B000002010BDEC05002038B540220446022341
:1043C0008121FFF7E3FB0223402201212046FFF772
:1043D000DDFB8221032308222046FFF7D7FB084B91
:1043E000022200251A715D71064B1B689847064A28
:1043F000402301212046FFF712FC284638BD00BFAC
:1044000030060020EC0500207044002038B50E4C2A
:10441000237C012B02D1E16911B92174002038BD40
:104420006269402997BF8D1840398BB20021E16144
:10443000064984BF02F14005402311FA82F281212E
:104440006561FFF70EFCE9E7503C0020703C00205E
:1044500000207047202803D021280DD0002070476D
:104460000E4B0A681A600A791A714A795A718A7968
:104470009A710122DA71F1E7084B1A680A701A681A
:10448000120A4A705A888A70DA78CA701A790A71E0
:104490005A794A719B798B71E0E700BFE4050020EF
:1044A00070B5094A094D0144884201D1002070BD10
:1044B000146810F8016B2E55631CB3F5006F28BF0C
:1044C00000231360F0E700BF683C0020703C002030
:1044D00038B504464518AC4201D1002038BD14F867
:1044E000010BFDF784FBF6E70020704710B5D0F80C
:1044F000E83504461B699847032384F812310020ED
:1045000010BD08B590F8123180F81331042380F8FB
:104510001231D0F8E835DB689847002008BD08B5AF
:10452000D0F8E435DB6903B19847002008BD08B531
:10453000D0F8E4351B6A9847002008BD08B5D0F8CC
:10454000E4355B6A9847002008BD002310B5194682
:1045500004464022FFF71AFB402280210023204618
:10456000FFF714FB012384F81231D4F8E835A07862
:104570005B689847002010BD13B56946044600F0FB
:1045800023FB9DF8001001F01F03012B09D0022B23
:104590000CD083B96946204600F08AF9002002B0A9
:1045A00010BD6946204600F09BFAF7E769462046B1
:1045B00000F0AEFAF2E701F080012046FFF76DFB54
:1045C000ECE710B5044669BB90F81131032B1AD102
:1045D000D0F89033D0F87C23934216D9C1780129C2
:1045E00008BFD0F88013A3EB020304BF8918C0F8FA
:1045F00080139A4228BF1A46D0F88013C0F890332F
:1046000092B200F01BF9002010BDD0F8E4351B6910
:1046100023B190F81221032A00D19847204600F0D8
:1046200015F9F0E7D0F8E4359B69002BEBD090F852
:104630001221032AE7D19847E5E738B50446002957
:1046400049D190F81131022B17D1D0F83821D0F888
:1046500024319A421ED9C178012904BFD0F828110B
:10466000C918A2EB030208BFC0F82811C0F838210E
:10467000D0F8281192B200F0CCF894F81631012B42
:1046800006D11A4A236912685A60002384F8163149
:10469000002038BDD0F83C21B2FBF3F503FB152513
:1046A0005DB9934209D8D0F840319A4205D22A46E2
:1046B00000F0AFF8C4F84051DFE7D4F8E435DB6828
:1046C0002BB194F81221032A01D1204698472046A5
:1046D00000F0CBF8D1E7D0F8E4355B69002BD7D0F8
:1046E00090F81221032AD3D19847D1E7F84400204B
:1046F0002DE9F041044616461F46DDF818800D46A8
:10470000FEF724FD20462946C4F8E475C4F8E88580
:10471000C4F8EC65FFF7F0F9D4F8E8351B68984762
:104720002046BDE8F041FEF757BD00207047D0F8A5
:10473000E43510B504461B689847D4F8E8359B6803
:104740009847002010BD08B5D0F8E4355B6898475D
:10475000002008BD122301480B807047300600205E
:10476000042301480B8070474206002010B5044C1A
:1047700004480A46214600F04AFA204610BD00BF10
:104780000C4500206CC1000810B5044C04480A46D2
:10479000214600F03CFA204610BD00BF0C45002029
:1047A0008DC1000810B5044C04480A46214600F0AB
:1047B0002EFA204610BD00BF0C450020A0C1000805
:1047C00010B5044C04480A46214600F020FA204661
:1047D00010BD00BF0C450020ADC1000810B5044C51
:1047E00004480A46214600F012FA204610BD00BFD8
:1047F0000C450020B8C1000810B51346C0E94E2290
:10480000022280F811210A460021FFF72AFA00202F
:1048100010BD08B513460A460021FFF722FA002012
:1048200008BD10B51346C0E9E422032280F8112127
:104830000A460021FFF7F3F9002010BD08B5134622
:104840000A460021FFF7EBF9002008BD10B504234C
:1048500080F81131002304461A461946FFF701FA81
:104860002046FFF784F8002010BD10B5052380F81E
:104870001131002304461A461946FFF7D0F92046A5
:10488000FFF775F8002010BD282303FB0100B0F8E6
:104890008C03704710B580210446FFF7FEF92046CF
:1048A0000021FFF7FAF92046BDE81040FFF75FB896
:1048B00073B54B7804460D46092B6DD8DFE813F02D
:1048C000BE00FC006C00CE006C0063000A006C00AF
:1048D000B00083004B881E0A022E25D0032E2ED056
:1048E000012E59D1D0F8EC3580781B680DF1060106
:1048F0009847EB88402B03D094F81231012B02D15A
:104900000823ADF80630BDF80620002A56D0EB8803
:10491000002B53D09A4228BF1A46ADF80620014614
:104920002046FFF769FF49E0D0F8E43580789B6ABC
:104930000DF1060198474670C4F8F005E3E7DBB2D5
:10494000052B29D8DFE803F0030B0F13171BD0F852
:10495000EC355B68A0780DF106019847D3E7D0F8F5
:10496000EC359B68F6E7D0F8EC35DB68F2E7D0F879
:10497000EC351B69EEE7D0F8EC355B69EAE7D0F877
:10498000EC359B69E6E78B8833B9CB8823B990F87F
:1049900012314D88032B03D12046FFF77BFF0DE03A
:1049A00005F07F0580F814512946FFF7B4F9204639
:1049B000FFF74CFF2DB1022384F81231002002B022
:1049C00070BD0123F8E78978414D01292970E3D8AA
:1049D00090F81231022B0DD0032BDDD1B1B9022397
:1049E00080F8123180F81011FFF7ADFE2046FFF776
:1049F0002DFFE3E70029F9D00121032380F81011EE
:104A000080F812312046FFF792FEEFE790F8101180
:104A10000129EBD0FFF797FE297884F81011F1E710
:104A2000CA88012AB8D190F81231022B04D0032B86
:104A3000B2D100F5887173E7264971E790F8123119
:104A4000023B012BA8D8224B01229A60D0F81821F2
:104A50000AB103229A602049022261E74B88012BA8
:104A600008D1C4F81831D4F8E43529469B682046AB
:104A70009847BBE7022BA1D10B798A88002B9DD1E7
:104A80000369120A013A5B68042A07D8DFE802F0DA
:104A9000030C0E101200012262F306130F4A13607A
:104AA000012384F81631A1E70222F5E70322F3E798
:104AB0000422F1E70522EFE790F81231023B012BC7
:104AC0003FF66AAF4B88012B7FF478AF0023C8E72D
:104AD000FC4400200045002004450020F84400204C
:104AE00038B590F81231032B04460D460DD10B79E1
:104AF000012B0AD8D0F8E4359B689847EB8813B9A6
:104B00002046FFF7A3FE002038BDFFF7C3FEFAE7FB
:104B100038B50D468A886B780979012B04463DD05B
:104B2000032B20D043BB90F81231022B44D0032B2F
:104B30001FD112F0800F4FF028031BBF01F07F013F
:104B400003FB010103FB010191F81E3108BF91F83D
:104B500076331C49003B18BF012341F80C3F022269
:104B6000FFF74AFE08E090F81231022B24D0032B05
:104B700004D02046FFF78EFE002038BD6B881BB99D
:104B80004B0601D0FFF789F8D4F8E43529469B6835
:104B9000204698472046FFF759FEEDE790F812317E
:104BA000022B09D0032BE4D16B88002BE4D14A06F9
:104BB000F0D0FFF78BF8E7E74B06DDD0FFF76DF895
:104BC000DAE700BFFC44002090F8CC350B7090F879
:104BD000CD354B70B0F8CE354B80B0F8D0358B80EA
:104BE000B0F8D235CB80C0F84031012380F81131C4
:104BF000704710B580210446FFF74FF8204600218A
:104C0000FFF74BF82046BDE81040FEF7B0BE70B588
:104C10000D461646044670B106F092FBC3B201334E
:104C20005B0033802B7003236B70013C0223002058
:104C300014F8011F01B970BD5A1CD2B2E9540233F5
:104C4000A854DBB2F4E700BF014B05221A7070478D
:104C50006C060020014B05221A7070476C0600207C
:104C6000014B06221A7070476C060020014B05228A
:104C70001A7070476C060020014B05221A707047AD
:104C80006C060020014B05221A7070476C0600204C
:104C9000014B05221A7070476C060020014B1878F2
:104CA000704700BF6C060020034B40F0BF6040F42B
:104CB0000030D860704700BF00ED00E0027870B5AA
:104CC00002F01F0301259D40C3785409C3B10F4B67
:104CD0004178DB68DB43C3F30223C3F10406F6B279
:104CE000B1400F261E418378C9B233400B430849B7
:104CF0001B010A44DBB282F8003341F8245070BD36
:104D0000034B203443F82450F9E700BF00ED00E0E6
:104D100000E100E021F06041024B21F07F010143FE
:104D20009960704700ED00E0044B1A6911B102432D
:104D30001A61704722EA0002FAE700BF00ED00E0C6
:104D40004FF0E02304281A690CBF42F0040222F05D
:104D500004021A61704700BF08B501214FF480704A
:104D600004F014F8BDE8084000214FF4807004F00E
:104D70000DB843680A7923F0407323F4807343EA43
:104D800002230A6813434360D1E9032313438A686B
:104D900010B513438468084A224013434A7943EA12
:104DA000420383600A7DC36A013A23F47003D2B2DE
:104DB00043EA0253C36210BDFDF7FFC00023C0E900
:104DC0000233036083800361012303757047D0E9D8
:104DD0000032064910B513434C68054A224013437C
:104DE00082681343C26813434B6010BD0023014027
:104DF000E030FCFF0023C0E90033C0E90233704714
:104E0000836819B143F001038360704723F0010305
:104E1000FAE7436823F4400323F400730B43436031
:104E20007047416282627047436823F01F03194351
:104E300041607047044B5A6818B142F400025A604E
:104E4000704722F40002FAE700230140044B5A683D
:104E500018B142F480025A60704722F48002FAE7E7
:104E600000230140092970B51BD9A1F10A04C568C6
:104E700004EB44040726A64025EA060503FA04F4D9
:104E80002C43C460062A17D8013A436B02EB820216
:104E90001F24944023EA040301FA02F21A434263F6
:104EA00070BD046901EB41060725B54024EA0504FD
:104EB000B34023430361E5E70C2A0CD8073A036BA0
:104EC00002EB82021F24944023EA040301FA02F257
:104ED0001A430263E4E70D3AC36A02EB82021F241D
:104EE000944023EA040391401943C162D8E78368E0
:104EF00043F08043836070478068C0F38050704700
:104F0000836819B143F480638360704723F480633E
:104F1000FAE7836819B143F002038360704723F016
:104F20000203FAE74368013923F4604343EA41335B
:104F300043607047436819B143F4006343607047AE
:104F400023F40063FAE7C06C80B27047014BD3F8DA
:104F50000803704700200140836819B143F480734F
:104F60008360704723F48073FAE7836819B143F4D0
:104F700000738360704723F40073FAE7044B5A68A8
:104F800018B142F400525A60704722F40052FAE716
:104F900000230140092970B51CD9A1F10A04C56894
:104FA00004EB44040726A64025EA060503FA04F4A8
:104FB0002C43C460836B0232C3F30154121BD2B280
:104FC00002EB82021F24944023EA04039140194318
:104FD000816370BD046901EB41060725B54024EAF1
:104FE0000504B34023430361E4E7836B013923F4F1
:104FF000401343EA01538363704782B00023019357
:105000000190019B19440191019B1A6002B0704705
:10501000836823F470230B4383607047836823F411
:1050200040130B4383607047836843F480038360BD
:105030007047FFF761BF436819B143F48063436071
:10504000704723F48063FAE7436819B143F480534F
:105050004360704723F48053FAE782B00023019342
:105060000190019B28330B440193019B186880B287
:1050700002B07047C9B201238B401AB14268134392
:1050800043607047426822EA0303F9E70368194264
:1050900014BF012000207047C94301607047426877
:1050A000006810EA112006D0C9B201238B401342D8
:1050B00014BF0120002070476FEA11210160704782
:1050C00008B50C4B98424FF001010AD14FF0007027
:1050D00003F050FE00214FF00070BDE8084003F0DF
:1050E00049BE4FF0806003F045FE00214FF0806024
:1050F000F3E700BF00640040026822F00202026091
:10510000026842F00102026003464FF480325868A0
:10511000C00701D4013AFAD1586810F0010053D009
:105120008A79012A1A680CBF42F0800222F08002BC
:105130001A60CA79012A1A680CBF42F0400222F0B4
:1051400040021A600A7A012A1A680CBF42F0200253
:1051500022F020021A604A7A012A1A680CBF42F033
:10516000100222F010021A608A7A012A1A680CBF13
:1051700042F0080222F008021A60CA7A012A1A686C
:105180000CBF42F0040222F004021A60CA78887848
:10519000120642EA8072087942EA00424879098898
:1051A00042EA005201390A43DA611A6822F0010228
:1051B0001A604FF480325968C90701D5013AFAD113
:1051C0005868C04300F001007047354A837A30B513
:1051D000D2F8004244F00104C2F80042D2F81C5256
:1051E0000121994025EA0105C2F81C52057BCC43F8
:1051F000002D34D1D2F80C52DB002540C2F80C52FD
:1052000003F18043C588428803F5C84342EA05425A
:10521000C3F840228588028842EA0542C3F8442246
:10522000C37A1F4A83BBD2F8043223400589C2F8EF
:1052300004321B4B65BBD2F814522C40C2F8144206
:10524000427B012A02BFD3F81C220A43C3F81C2266
:10525000D3F8002222F00102C3F8002230BD012D54
:10526000DED1D2F80C52DB000D43C2F80C5203F130
:1052700080430588428803F5C84342EA0542C3F8E3
:1052800040228588C288C7E7D2F804320B43CDE7B5
:10529000012D02BFD3F814220A43C3F81422CFE72A
:1052A000006400400123038040F203220023438076
:1052B0008280C3800381438170470E4BD3F8002264
:1052C00042F00102C3F80022D3F8002222F47C52FB
:1052D00022F00E02C3F80022D3F8002242EA002294
:1052E000C3F80022D3F8002222F00102C3F8002202
:1052F000704700BF00640040036819B143F4803375
:105300000360704723F48033FAE70368A9B143F0E0
:1053100080030360D0F8843143F48073C0F8843193
:10532000D0F8943143F48073C0F89431D0F8A431AC
:1053300043F48073C0F8A431704723F08003036006
:10534000D0F8843123F48073C0F88431D0F89431DC
:1053500023F48073C0F89431D0F8A43123F480731F
:10536000E8E78368F0B50446580139D4A3681A0108
:1053700038D4A368DB003FD5022004EB0013D3F838
:10538000802102F00102C3F880210D7A4A7A5DBBC8
:105390000E68D3F8805142EA46522A43C3F880216E
:1053A0008A7A02F00F028A72D3F8845125F00F0531
:1053B000C3F88451D3F884512A43C3F8842104EB01
:1053C0000014D1F80B20C4F88821D1F80F20C4F8BC
:1053D0008C21D3F8802142F00102C3F88021F0BD76
:1053E0000020CAE70120C8E74F68D3F8806142EA8D
:1053F000C7022A433243D1E70420F0E701290AD04B
:10540000022913D0C9B982680D4B02EA0300934305
:1054100007D10120704780680A4B094A1840904222
:1054200007D8B0FA80F04009400070478068064B0A
:10543000F3E7C31A5842584170470220704700BF33
:10544000030000040003000800000310012907D036
:10545000022909D019B9836843F08003836070473B
:10546000836843F40043F9E7836843F40003F5E7F6
:1054700000EB011310B5D3F8B04104F0040414722A
:10548000BCBBD3F8B041640D1460D3F8B04104F054
:1054900002045472D3F8B44104F00F049472D3F8A8
:1054A000B4311B0AD37400EB0113D3F8B841D472A2
:1054B000D3F8B841240A1473D3F8B841240C5473B8
:1054C000D3F8B841240E9473D3F8BC41D473D3F805
:1054D000BC41240A1474D3F8BC41240C5474D3F88E
:1054E000BC311B0E937449B9C36843F02003C360F9
:1054F00010BDD3F8B041E4085460C6E7036943F037
:1055000020030361F4E721B9C36843F02003C360BB
:105510007047036943F020030361704719B9C068FD
:1055200000F003007047012901D10069F8E700206D
:105530007047B1B9036823F0030343F0010303602C
:105540004FF48033426802F00302012A01D0013B8C
:10555000F8D1406800F00300012814BF00200120AA
:105560007047012911D1036823F0030303604FF44E
:1055700080334268920701D0013BFAD1436813F0AF
:10558000030F0CBF012000207047022913D10368CC
:1055900023F0030343F0020303604FF480334268B7
:1055A00002F00302022A01D0013BF8D1406800F06A
:1055B00003000228D1E700207047036823F00303AB
:1055C00043F002030360406800F00300831E58426A
:1055D00058417047036823F0020303604FF480339F
:1055E0004268920701D5013BFAD1406880F0020081
:1055F000C0F340007047806900F070007047806918
:10560000000E70478069C0F307407047436912B1CC
:105610000B434361704723EA0103FAE711F4700F6B
:1056200007D080690840C0F31300003818BF01207C
:105630007047CB0101D54068F4E70A0101D58068C5
:10564000F0E78B014CBFC0680069EBE70A4B994259
:1056500002D10023836170478A01C1F3130301D58E
:10566000C36070474A0101D5036170470A014CBF0E
:1056700083604360704700BF7000F03002464069AD
:10568000084015D0B1F5807F4BD012D8082908D832
:10569000013907290BD8DFE801F0252E0A340A0A60
:1056A0000A38202937D0402937D0102931D000209E
:1056B0007047B1F5004F43D00CD8B1F5806F34D0AE
:1056C000B1F5006F35D0B1F5007FF0D19069C0F32E
:1056D00040007047B1F5803F21D0B1F5003FE6D1E1
:1056E000506813E0906800F0013020F080700038BE
:1056F00018BF01207047D06810F0030018BF0120C8
:105700007047D068C0F3C0007047D068C0F3001085
:1057100070471069F0E71069F4E71069F6E7506820
:10572000F0E7906900F0010070479069C0F38000D5
:105730007047936913F0700F14BF01200020704769
:105740005068F3E7B1F5007F36D00FD8202927D075
:1057500006D804291FD0082920D0012918D0704765
:10576000402920D0B1F5807F26D07047B1F5004F99
:1057700020D006D8B1F5806F1ED0B1F5006F19D0DA
:105780007047B1F5803F10D0B1F5003F10D07047A1
:105790000A4B836070470823C36070471023FBE700
:1057A0000823036170471023FBE708234360704719
:1057B0001023FBE7002383610423F7E701010100C5
:1057C000014B01229A60704700300240014B186083
:1057D0001868704700300240054B00EB8101884299
:1057E00001D11868704750F8042B1A60F7E700BF22
:1057F00000300240014B1868704700BF0030024083
:10580000014B1871704700BF00300240014B1879FE
:10581000704700BF003002402DE9F0418EB01546C0
:105820000646002706A80C469846019700F0D2FFCE
:10583000C02D33D0B5F5807F44D0802D0CD1059795
:1058400023681BBA0A9363681BBA0B93A3681BBA3D
:105850000C93E3681BBA0D93002E77D100F0E0FFA4
:105860000421382302A8CDE90213049600F065FF55
:1058700006A800F09BFF012000F0DAFF102001F0E5
:10588000D7F8019B01330193019BB3F5803F33D0DF
:105890000028F3D10423029301262FE04FF48073F4
:1058A000059323681BBA089363681BBA0993A3681E
:1058B0001BBA0A93E3681BBA0B9323691BBA0C93B8
:1058C0006369C7E74FF40073059323681BBA069317
:1058D00063681BBA0793A3681BBA0893E3681BBAF3
:1058E000099323691BBA0A9363691BBA0B93A369D3
:1058F0001BBA0C93E369ADE70028CBD020228023AC
:1059000002A8CDE9032300F018FF00F089FF012071
:1059100000F08EFF01F084F8044698B108F11005FC
:10592000C8F1FF2808F57F08159F344608F1F008F4
:105930000026149A08EB05039A4200D95CB90020AE
:1059400000F076FF20460EB0BDE8F08106A800F01A
:105950002DFF00239FE755F8100C00F075FF55F858
:105960000C0C00F071FF55F8080C00F06DFF55F8B5
:10597000040C00F069FF0196102001F059F8019B1A
:1059800001330193019BB3F5803F11D00028F3D17F
:1059900000F060FF386000F05DFF786000F05AFFB3
:1059A000B86000F057FF103747F8040C1035C0E717
:1059B0000028EDD00024F9E72DE9F04792B01F460A
:1059C00080464FF0000A0AA81A9ECDF804A00D46A2
:1059D000144600F0FFFEC02F43D0B7F5807F54D0AF
:1059E000802F0DD1CDF814A023681BBA0E936368E5
:1059F0001BBA0F93A3681BBA1093E3681BBA1193E9
:105A00002B681BBA06936B681BBA0793AB681BBA6B
:105A10000893EB681BBA0993B8F1000F7AD100F034
:105A2000FFFE0421382302A8CDE90213CDF810802F
:105A300000F083FE0AA800F0B9FE012000F0F8FE95
:105A4000102000F0F5FF019B01330193019BB3F59A
:105A5000803F34D00028F3D1042302934FF0010893
:105A60002FE04FF48073059323681BBA0C9363688F
:105A70001BBA0D93A3681BBA0E93E3681BBA0F936E
:105A800023691BBA10936369B8E74FF40073059359
:105A900023681BBA0A9363681BBA0B93A3681BBAEB
:105AA0000C93E3681BBA0D9323691BBA0E936369C9
:105AB0001BBA0F93A3691BBA1093E3699EE70028F2
:105AC000CAD02822802302A8CDE9032300F035FEA6
:105AD00006A800F089FE00F0A3FE012000F0A8FE59
